{
  "contractName": "Color",
  "abi": [
    {
      "inputs": [],
      "stateMutability": "nonpayable",
      "type": "constructor"
    },
    {
      "anonymous": false,
      "inputs": [
        {
          "indexed": true,
          "internalType": "address",
          "name": "owner",
          "type": "address"
        },
        {
          "indexed": true,
          "internalType": "address",
          "name": "approved",
          "type": "address"
        },
        {
          "indexed": true,
          "internalType": "uint256",
          "name": "tokenId",
          "type": "uint256"
        }
      ],
      "name": "Approval",
      "type": "event"
    },
    {
      "anonymous": false,
      "inputs": [
        {
          "indexed": true,
          "internalType": "address",
          "name": "owner",
          "type": "address"
        },
        {
          "indexed": true,
          "internalType": "address",
          "name": "operator",
          "type": "address"
        },
        {
          "indexed": false,
          "internalType": "bool",
          "name": "approved",
          "type": "bool"
        }
      ],
      "name": "ApprovalForAll",
      "type": "event"
    },
    {
      "anonymous": false,
      "inputs": [
        {
          "indexed": true,
          "internalType": "address",
          "name": "from",
          "type": "address"
        },
        {
          "indexed": true,
          "internalType": "address",
          "name": "to",
          "type": "address"
        },
        {
          "indexed": true,
          "internalType": "uint256",
          "name": "tokenId",
          "type": "uint256"
        }
      ],
      "name": "Transfer",
      "type": "event"
    },
    {
      "inputs": [],
      "name": "admin",
      "outputs": [
        {
          "internalType": "address",
          "name": "",
          "type": "address"
        }
      ],
      "stateMutability": "view",
      "type": "function"
    },
    {
      "inputs": [
        {
          "internalType": "address",
          "name": "to",
          "type": "address"
        },
        {
          "internalType": "uint256",
          "name": "tokenId",
          "type": "uint256"
        }
      ],
      "name": "approve",
      "outputs": [],
      "stateMutability": "nonpayable",
      "type": "function"
    },
    {
      "inputs": [
        {
          "internalType": "address",
          "name": "owner",
          "type": "address"
        }
      ],
      "name": "balanceOf",
      "outputs": [
        {
          "internalType": "uint256",
          "name": "",
          "type": "uint256"
        }
      ],
      "stateMutability": "view",
      "type": "function"
    },
    {
      "inputs": [
        {
          "internalType": "uint256",
          "name": "tokenId",
          "type": "uint256"
        }
      ],
      "name": "getApproved",
      "outputs": [
        {
          "internalType": "address",
          "name": "",
          "type": "address"
        }
      ],
      "stateMutability": "view",
      "type": "function"
    },
    {
      "inputs": [
        {
          "internalType": "address",
          "name": "owner",
          "type": "address"
        },
        {
          "internalType": "address",
          "name": "operator",
          "type": "address"
        }
      ],
      "name": "isApprovedForAll",
      "outputs": [
        {
          "internalType": "bool",
          "name": "",
          "type": "bool"
        }
      ],
      "stateMutability": "view",
      "type": "function"
    },
    {
      "inputs": [],
      "name": "name",
      "outputs": [
        {
          "internalType": "string",
          "name": "",
          "type": "string"
        }
      ],
      "stateMutability": "view",
      "type": "function"
    },
    {
      "inputs": [
        {
          "internalType": "uint256",
          "name": "tokenId",
          "type": "uint256"
        }
      ],
      "name": "ownerOf",
      "outputs": [
        {
          "internalType": "address",
          "name": "",
          "type": "address"
        }
      ],
      "stateMutability": "view",
      "type": "function"
    },
    {
      "inputs": [
        {
          "internalType": "address",
          "name": "from",
          "type": "address"
        },
        {
          "internalType": "address",
          "name": "to",
          "type": "address"
        },
        {
          "internalType": "uint256",
          "name": "tokenId",
          "type": "uint256"
        }
      ],
      "name": "safeTransferFrom",
      "outputs": [],
      "stateMutability": "nonpayable",
      "type": "function"
    },
    {
      "inputs": [
        {
          "internalType": "address",
          "name": "from",
          "type": "address"
        },
        {
          "internalType": "address",
          "name": "to",
          "type": "address"
        },
        {
          "internalType": "uint256",
          "name": "tokenId",
          "type": "uint256"
        },
        {
          "internalType": "bytes",
          "name": "_data",
          "type": "bytes"
        }
      ],
      "name": "safeTransferFrom",
      "outputs": [],
      "stateMutability": "nonpayable",
      "type": "function"
    },
    {
      "inputs": [
        {
          "internalType": "address",
          "name": "operator",
          "type": "address"
        },
        {
          "internalType": "bool",
          "name": "approved",
          "type": "bool"
        }
      ],
      "name": "setApprovalForAll",
      "outputs": [],
      "stateMutability": "nonpayable",
      "type": "function"
    },
    {
      "inputs": [
        {
          "internalType": "bytes4",
          "name": "interfaceId",
          "type": "bytes4"
        }
      ],
      "name": "supportsInterface",
      "outputs": [
        {
          "internalType": "bool",
          "name": "",
          "type": "bool"
        }
      ],
      "stateMutability": "view",
      "type": "function"
    },
    {
      "inputs": [],
      "name": "symbol",
      "outputs": [
        {
          "internalType": "string",
          "name": "",
          "type": "string"
        }
      ],
      "stateMutability": "view",
      "type": "function"
    },
    {
      "inputs": [
        {
          "internalType": "uint256",
          "name": "tokenId",
          "type": "uint256"
        }
      ],
      "name": "tokenURI",
      "outputs": [
        {
          "internalType": "string",
          "name": "",
          "type": "string"
        }
      ],
      "stateMutability": "view",
      "type": "function"
    },
    {
      "inputs": [
        {
          "internalType": "address",
          "name": "from",
          "type": "address"
        },
        {
          "internalType": "address",
          "name": "to",
          "type": "address"
        },
        {
          "internalType": "uint256",
          "name": "tokenId",
          "type": "uint256"
        }
      ],
      "name": "transferFrom",
      "outputs": [],
      "stateMutability": "nonpayable",
      "type": "function"
    },
    {
      "inputs": [],
      "name": "totalSupply",
      "outputs": [
        {
          "internalType": "uint256",
          "name": "",
          "type": "uint256"
        }
      ],
      "stateMutability": "view",
      "type": "function"
    },
    {
      "inputs": [
        {
          "internalType": "address",
          "name": "_newAdmin",
          "type": "address"
        }
      ],
      "name": "setAdmin",
      "outputs": [],
      "stateMutability": "nonpayable",
      "type": "function"
    },
    {
      "inputs": [
        {
          "internalType": "string",
          "name": "_color",
          "type": "string"
        }
      ],
      "name": "mint",
      "outputs": [
        {
          "internalType": "string",
          "name": "",
          "type": "string"
        }
      ],
      "stateMutability": "nonpayable",
      "type": "function"
    },
    {
      "inputs": [
        {
          "internalType": "address",
          "name": "_owner",
          "type": "address"
        }
      ],
      "name": "getAllColors",
      "outputs": [
        {
          "internalType": "string[]",
          "name": "",
          "type": "string[]"
        }
      ],
      "stateMutability": "view",
      "type": "function"
    }
  ],
  "bytecode": "0x60806040523480156200001157600080fd5b506040518060400160405280600c81526020017f436f6c6f72426c656e64657200000000000000000000000000000000000000008152506040518060400160405280600281526020017f4342000000000000000000000000000000000000000000000000000000000000815250816000908051906020019062000096929190620000b8565b508060019080519060200190620000af929190620000b8565b505050620001cd565b828054620000c69062000168565b90600052602060002090601f016020900481019282620000ea576000855562000136565b82601f106200010557805160ff191683800117855562000136565b8280016001018555821562000136579182015b828111156200013557825182559160200191906001019062000118565b5b50905062000145919062000149565b5090565b5b80821115620001645760008160009055506001016200014a565b5090565b600060028204905060018216806200018157607f821691505b602082108114156200019857620001976200019e565b5b50919050565b7f4e487b7100000000000000000000000000000000000000000000000000000000600052602260045260246000fd5b612f2e80620001dd6000396000f3fe608060405234801561001057600080fd5b50600436106101165760003560e01c8063704b6c02116100a2578063b88d4fde11610071578063b88d4fde146102f1578063c87b56dd1461030d578063d85d3d271461033d578063e985e9c51461036d578063f851a4401461039d57610116565b8063704b6c021461026b57806370a082311461028757806395d89b41146102b7578063a22cb465146102d557610116565b806318160ddd116100e957806318160ddd146101b557806323b872dd146101d357806342842e0e146101ef578063549e14401461020b5780636352211e1461023b57610116565b806301ffc9a71461011b57806306fdde031461014b578063081812fc14610169578063095ea7b314610199575b600080fd5b61013560048036038101906101309190611f79565b6103bb565b6040516101429190612475565b60405180910390f35b61015361049d565b6040516101609190612490565b60405180910390f35b610183600480360381019061017e919061200c565b61052f565b60405161019091906123ec565b60405180910390f35b6101b360048036038101906101ae9190611f3d565b6105b4565b005b6101bd6106cc565b6040516101ca9190612672565b60405180910390f35b6101ed60048036038101906101e89190611e37565b6106d9565b005b61020960048036038101906102049190611e37565b610739565b005b61022560048036038101906102209190611dd2565b610759565b6040516102329190612453565b60405180910390f35b6102556004803603810190610250919061200c565b610a66565b60405161026291906123ec565b60405180910390f35b61028560048036038101906102809190611dd2565b610b18565b005b6102a1600480360381019061029c9190611dd2565b610bf0565b6040516102ae9190612672565b60405180910390f35b6102bf610ca8565b6040516102cc9190612490565b60405180910390f35b6102ef60048036038101906102ea9190611f01565b610d3a565b005b61030b60048036038101906103069190611e86565b610ebb565b005b6103276004803603810190610322919061200c565b610f1d565b6040516103349190612490565b60405180910390f35b61035760048036038101906103529190611fcb565b610fc4565b6040516103649190612490565b60405180910390f35b61038760048036038101906103829190611dfb565b6110ce565b6040516103949190612475565b60405180910390f35b6103a5611162565b6040516103b291906123ec565b60405180910390f35b60007f80ac58cd000000000000000000000000000000000000000000000000000000007bffffffffffffffffffffffffffffffffffffffffffffffffffffffff1916827bffffffffffffffffffffffffffffffffffffffffffffffffffffffff1916148061048657507f5b5e139f000000000000000000000000000000000000000000000000000000007bffffffffffffffffffffffffffffffffffffffffffffffffffffffff1916827bffffffffffffffffffffffffffffffffffffffffffffffffffffffff1916145b80610496575061049582611188565b5b9050919050565b6060600080546104ac90612912565b80601f01602080910402602001604051908101604052809291908181526020018280546104d890612912565b80156105255780601f106104fa57610100808354040283529160200191610525565b820191906000526020600020905b81548152906001019060200180831161050857829003601f168201915b5050505050905090565b600061053a826111f2565b610579576040517f08c379a0000000000000000000000000000000000000000000000000000000008152600401610570906125d2565b60405180910390fd5b6004600083815260200190815260200160002060009054906101000a900473ffffffffffffffffffffffffffffffffffffffff169050919050565b60006105bf82610a66565b90508073ffffffffffffffffffffffffffffffffffffffff168373ffffffffffffffffffffffffffffffffffffffff161415610630576040517f08c379a000000000000000000000000000000000000000000000000000000000815260040161062790612632565b60405180910390fd5b8073ffffffffffffffffffffffffffffffffffffffff1661064f61125e565b73ffffffffffffffffffffffffffffffffffffffff16148061067e575061067d8161067861125e565b6110ce565b5b6106bd576040517f08c379a00000000000000000000000000000000000000000000000000000000081526004016106b490612552565b60405180910390fd5b6106c78383611266565b505050565b6000600780549050905090565b6106ea6106e461125e565b8261131f565b610729576040517f08c379a000000000000000000000000000000000000000000000000000000000815260040161072090612652565b60405180910390fd5b6107348383836113fd565b505050565b61075483838360405180602001604052806000815250610ebb565b505050565b606060006107656106cc565b90506000808267ffffffffffffffff8111156107aa577f4e487b7100000000000000000000000000000000000000000000000000000000600052604160045260246000fd5b6040519080825280602002602001820160405280156107dd57816020015b60608152602001906001900390816107c85790505b5090506000600190505b83811015610989578573ffffffffffffffffffffffffffffffffffffffff166008600083815260200190815260200160002060009054906101000a900473ffffffffffffffffffffffffffffffffffffffff1673ffffffffffffffffffffffffffffffffffffffff1614156109765760078181548110610890577f4e487b7100000000000000000000000000000000000000000000000000000000600052603260045260246000fd5b9060005260206000200180546108a590612912565b80601f01602080910402602001604051908101604052809291908181526020018280546108d190612912565b801561091e5780601f106108f35761010080835404028352916020019161091e565b820191906000526020600020905b81548152906001019060200180831161090157829003601f168201915b505050505082848151811061095c577f4e487b7100000000000000000000000000000000000000000000000000000000600052603260045260246000fd5b6020026020010181905250828061097290612975565b9350505b808061098190612975565b9150506107e7565b506007805480602002602001604051908101604052809291908181526020016000905b82821015610a585783829060005260206000200180546109cb90612912565b80601f01602080910402602001604051908101604052809291908181526020018280546109f790612912565b8015610a445780601f10610a1957610100808354040283529160200191610a44565b820191906000526020600020905b815481529060010190602001808311610a2757829003601f168201915b5050505050815260200190600101906109ac565b505050509350505050919050565b6000806002600084815260200190815260200160002060009054906101000a900473ffffffffffffffffffffffffffffffffffffffff169050600073ffffffffffffffffffffffffffffffffffffffff168173ffffffffffffffffffffffffffffffffffffffff161415610b0f576040517f08c379a0000000000000000000000000000000000000000000000000000000008152600401610b0690612592565b60405180910390fd5b80915050919050565b600660009054906101000a900473ffffffffffffffffffffffffffffffffffffffff1673ffffffffffffffffffffffffffffffffffffffff163373ffffffffffffffffffffffffffffffffffffffff1614610b7257600080fd5b600073ffffffffffffffffffffffffffffffffffffffff168173ffffffffffffffffffffffffffffffffffffffff161415610bac57600080fd5b80600660006101000a81548173ffffffffffffffffffffffffffffffffffffffff021916908373ffffffffffffffffffffffffffffffffffffffff16021790555050565b60008073ffffffffffffffffffffffffffffffffffffffff168273ffffffffffffffffffffffffffffffffffffffff161415610c61576040517f08c379a0000000000000000000000000000000000000000000000000000000008152600401610c5890612572565b60405180910390fd5b600360008373ffffffffffffffffffffffffffffffffffffffff1673ffffffffffffffffffffffffffffffffffffffff168152602001908152602001600020549050919050565b606060018054610cb790612912565b80601f0160208091040260200160405190810160405280929190818152602001828054610ce390612912565b8015610d305780601f10610d0557610100808354040283529160200191610d30565b820191906000526020600020905b815481529060010190602001808311610d1357829003601f168201915b5050505050905090565b610d4261125e565b73ffffffffffffffffffffffffffffffffffffffff168273ffffffffffffffffffffffffffffffffffffffff161415610db0576040517f08c379a0000000000000000000000000000000000000000000000000000000008152600401610da790612512565b60405180910390fd5b8060056000610dbd61125e565b73ffffffffffffffffffffffffffffffffffffffff1673ffffffffffffffffffffffffffffffffffffffff16815260200190815260200160002060008473ffffffffffffffffffffffffffffffffffffffff1673ffffffffffffffffffffffffffffffffffffffff16815260200190815260200160002060006101000a81548160ff0219169083151502179055508173ffffffffffffffffffffffffffffffffffffffff16610e6a61125e565b73ffffffffffffffffffffffffffffffffffffffff167f17307eab39ab6107e8899845ad3d59bd9653f200f220920489ca2b5937696c3183604051610eaf9190612475565b60405180910390a35050565b610ecc610ec661125e565b8361131f565b610f0b576040517f08c379a0000000000000000000000000000000000000000000000000000000008152600401610f0290612652565b60405180910390fd5b610f1784848484611659565b50505050565b6060610f28826111f2565b610f67576040517f08c379a0000000000000000000000000000000000000000000000000000000008152600401610f5e90612612565b60405180910390fd5b6000610f716116b5565b90506000815111610f915760405180602001604052806000815250610fbc565b80610f9b846116cc565b604051602001610fac9291906123c8565b6040516020818303038152906040525b915050919050565b60606000600983604051610fd891906123b1565b9081526020016040518091039020541415610ff257600080fd5b60078290806001815401808255809150506001900390600052602060002001600090919091909150908051906020019061102d929190611bf6565b506000600161103a6106cc565b6110449190612828565b90506110503382611879565b336008600083815260200190815260200160002060006101000a81548173ffffffffffffffffffffffffffffffffffffffff021916908373ffffffffffffffffffffffffffffffffffffffff160217905550806009846040516110b391906123b1565b90815260200160405180910390208190555082915050919050565b6000600560008473ffffffffffffffffffffffffffffffffffffffff1673ffffffffffffffffffffffffffffffffffffffff16815260200190815260200160002060008373ffffffffffffffffffffffffffffffffffffffff1673ffffffffffffffffffffffffffffffffffffffff16815260200190815260200160002060009054906101000a900460ff16905092915050565b600660009054906101000a900473ffffffffffffffffffffffffffffffffffffffff1681565b60007f01ffc9a7000000000000000000000000000000000000000000000000000000007bffffffffffffffffffffffffffffffffffffffffffffffffffffffff1916827bffffffffffffffffffffffffffffffffffffffffffffffffffffffff1916149050919050565b60008073ffffffffffffffffffffffffffffffffffffffff166002600084815260200190815260200160002060009054906101000a900473ffffffffffffffffffffffffffffffffffffffff1673ffffffffffffffffffffffffffffffffffffffff1614159050919050565b600033905090565b816004600083815260200190815260200160002060006101000a81548173ffffffffffffffffffffffffffffffffffffffff021916908373ffffffffffffffffffffffffffffffffffffffff160217905550808273ffffffffffffffffffffffffffffffffffffffff166112d983610a66565b73ffffffffffffffffffffffffffffffffffffffff167f8c5be1e5ebec7d5bd14f71427d1e84f3dd0314c0f7b2291e5b200ac8c7c3b92560405160405180910390a45050565b600061132a826111f2565b611369576040517f08c379a000000000000000000000000000000000000000000000000000000000815260040161136090612532565b60405180910390fd5b600061137483610a66565b90508073ffffffffffffffffffffffffffffffffffffffff168473ffffffffffffffffffffffffffffffffffffffff1614806113e357508373ffffffffffffffffffffffffffffffffffffffff166113cb8461052f565b73ffffffffffffffffffffffffffffffffffffffff16145b806113f457506113f381856110ce565b5b91505092915050565b8273ffffffffffffffffffffffffffffffffffffffff1661141d82610a66565b73ffffffffffffffffffffffffffffffffffffffff1614611473576040517f08c379a000000000000000000000000000000000000000000000000000000000815260040161146a906125f2565b60405180910390fd5b600073ffffffffffffffffffffffffffffffffffffffff168273ffffffffffffffffffffffffffffffffffffffff1614156114e3576040517f08c379a00000000000000000000000000000000000000000000000000000000081526004016114da906124f2565b60405180910390fd5b6114ee838383611a47565b6114f9600082611266565b6001600360008573ffffffffffffffffffffffffffffffffffffffff1673ffffffffffffffffffffffffffffffffffffffff16815260200190815260200160002060008282546115499190612828565b925050819055506001600360008473ffffffffffffffffffffffffffffffffffffffff1673ffffffffffffffffffffffffffffffffffffffff16815260200190815260200160002060008282546115a091906127a1565b92505081905550816002600083815260200190815260200160002060006101000a81548173ffffffffffffffffffffffffffffffffffffffff021916908373ffffffffffffffffffffffffffffffffffffffff160217905550808273ffffffffffffffffffffffffffffffffffffffff168473ffffffffffffffffffffffffffffffffffffffff167fddf252ad1be2c89b69c2b068fc378daa952ba7f163c4a11628f55a4df523b3ef60405160405180910390a4505050565b6116648484846113fd565b61167084848484611a4c565b6116af576040517f08c379a00000000000000000000000000000000000000000000000000000000081526004016116a6906124b2565b60405180910390fd5b50505050565b606060405180602001604052806000815250905090565b60606000821415611714576040518060400160405280600181526020017f30000000000000000000000000000000000000000000000000000000000000008152509050611874565b600082905060005b6000821461174657808061172f90612975565b915050600a8261173f91906127f7565b915061171c565b60008167ffffffffffffffff811115611788577f4e487b7100000000000000000000000000000000000000000000000000000000600052604160045260246000fd5b6040519080825280601f01601f1916602001820160405280156117ba5781602001600182028036833780820191505090505b5090505b6000851461186d576001826117d39190612828565b9150600a856117e291906129be565b60306117ee91906127a1565b60f81b81838151811061182a577f4e487b7100000000000000000000000000000000000000000000000000000000600052603260045260246000fd5b60200101907effffffffffffffffffffffffffffffffffffffffffffffffffffffffffffff1916908160001a905350600a8561186691906127f7565b94506117be565b8093505050505b919050565b600073ffffffffffffffffffffffffffffffffffffffff168273ffffffffffffffffffffffffffffffffffffffff1614156118e9576040517f08c379a00000000000000000000000000000000000000000000000000000000081526004016118e0906125b2565b60405180910390fd5b6118f2816111f2565b15611932576040517f08c379a0000000000000000000000000000000000000000000000000000000008152600401611929906124d2565b60405180910390fd5b61193e60008383611a47565b6001600360008473ffffffffffffffffffffffffffffffffffffffff1673ffffffffffffffffffffffffffffffffffffffff168152602001908152602001600020600082825461198e91906127a1565b92505081905550816002600083815260200190815260200160002060006101000a81548173ffffffffffffffffffffffffffffffffffffffff021916908373ffffffffffffffffffffffffffffffffffffffff160217905550808273ffffffffffffffffffffffffffffffffffffffff16600073ffffffffffffffffffffffffffffffffffffffff167fddf252ad1be2c89b69c2b068fc378daa952ba7f163c4a11628f55a4df523b3ef60405160405180910390a45050565b505050565b6000611a6d8473ffffffffffffffffffffffffffffffffffffffff16611be3565b15611bd6578373ffffffffffffffffffffffffffffffffffffffff1663150b7a02611a9661125e565b8786866040518563ffffffff1660e01b8152600401611ab89493929190612407565b602060405180830381600087803b158015611ad257600080fd5b505af1925050508015611b0357506040513d601f19601f82011682018060405250810190611b009190611fa2565b60015b611b86573d8060008114611b33576040519150601f19603f3d011682016040523d82523d6000602084013e611b38565b606091505b50600081511415611b7e576040517f08c379a0000000000000000000000000000000000000000000000000000000008152600401611b75906124b2565b60405180910390fd5b805181602001fd5b63150b7a0260e01b7bffffffffffffffffffffffffffffffffffffffffffffffffffffffff1916817bffffffffffffffffffffffffffffffffffffffffffffffffffffffff191614915050611bdb565b600190505b949350505050565b600080823b905060008111915050919050565b828054611c0290612912565b90600052602060002090601f016020900481019282611c245760008555611c6b565b82601f10611c3d57805160ff1916838001178555611c6b565b82800160010185558215611c6b579182015b82811115611c6a578251825591602001919060010190611c4f565b5b509050611c789190611c7c565b5090565b5b80821115611c95576000816000905550600101611c7d565b5090565b6000611cac611ca7846126b2565b61268d565b905082815260208101848484011115611cc457600080fd5b611ccf8482856128d0565b509392505050565b6000611cea611ce5846126e3565b61268d565b905082815260208101848484011115611d0257600080fd5b611d0d8482856128d0565b509392505050565b600081359050611d2481612e9c565b92915050565b600081359050611d3981612eb3565b92915050565b600081359050611d4e81612eca565b92915050565b600081519050611d6381612eca565b92915050565b600082601f830112611d7a57600080fd5b8135611d8a848260208601611c99565b91505092915050565b600082601f830112611da457600080fd5b8135611db4848260208601611cd7565b91505092915050565b600081359050611dcc81612ee1565b92915050565b600060208284031215611de457600080fd5b6000611df284828501611d15565b91505092915050565b60008060408385031215611e0e57600080fd5b6000611e1c85828601611d15565b9250506020611e2d85828601611d15565b9150509250929050565b600080600060608486031215611e4c57600080fd5b6000611e5a86828701611d15565b9350506020611e6b86828701611d15565b9250506040611e7c86828701611dbd565b9150509250925092565b60008060008060808587031215611e9c57600080fd5b6000611eaa87828801611d15565b9450506020611ebb87828801611d15565b9350506040611ecc87828801611dbd565b925050606085013567ffffffffffffffff811115611ee957600080fd5b611ef587828801611d69565b91505092959194509250565b60008060408385031215611f1457600080fd5b6000611f2285828601611d15565b9250506020611f3385828601611d2a565b9150509250929050565b60008060408385031215611f5057600080fd5b6000611f5e85828601611d15565b9250506020611f6f85828601611dbd565b9150509250929050565b600060208284031215611f8b57600080fd5b6000611f9984828501611d3f565b91505092915050565b600060208284031215611fb457600080fd5b6000611fc284828501611d54565b91505092915050565b600060208284031215611fdd57600080fd5b600082013567ffffffffffffffff811115611ff757600080fd5b61200384828501611d93565b91505092915050565b60006020828403121561201e57600080fd5b600061202c84828501611dbd565b91505092915050565b60006120418383612115565b905092915050565b6120528161285c565b82525050565b600061206382612724565b61206d8185612752565b93508360208202850161207f85612714565b8060005b858110156120bb578484038952815161209c8582612035565b94506120a783612745565b925060208a01995050600181019050612083565b50829750879550505050505092915050565b6120d68161286e565b82525050565b60006120e78261272f565b6120f18185612763565b93506121018185602086016128df565b61210a81612aab565b840191505092915050565b60006121208261273a565b61212a8185612774565b935061213a8185602086016128df565b61214381612aab565b840191505092915050565b60006121598261273a565b6121638185612785565b93506121738185602086016128df565b61217c81612aab565b840191505092915050565b60006121928261273a565b61219c8185612796565b93506121ac8185602086016128df565b80840191505092915050565b60006121c5603283612785565b91506121d082612abc565b604082019050919050565b60006121e8601c83612785565b91506121f382612b0b565b602082019050919050565b600061220b602483612785565b915061221682612b34565b604082019050919050565b600061222e601983612785565b915061223982612b83565b602082019050919050565b6000612251602c83612785565b915061225c82612bac565b604082019050919050565b6000612274603883612785565b915061227f82612bfb565b604082019050919050565b6000612297602a83612785565b91506122a282612c4a565b604082019050919050565b60006122ba602983612785565b91506122c582612c99565b604082019050919050565b60006122dd602083612785565b91506122e882612ce8565b602082019050919050565b6000612300602c83612785565b915061230b82612d11565b604082019050919050565b6000612323602983612785565b915061232e82612d60565b604082019050919050565b6000612346602f83612785565b915061235182612daf565b604082019050919050565b6000612369602183612785565b915061237482612dfe565b604082019050919050565b600061238c603183612785565b915061239782612e4d565b604082019050919050565b6123ab816128c6565b82525050565b60006123bd8284612187565b915081905092915050565b60006123d48285612187565b91506123e08284612187565b91508190509392505050565b60006020820190506124016000830184612049565b92915050565b600060808201905061241c6000830187612049565b6124296020830186612049565b61243660408301856123a2565b818103606083015261244881846120dc565b905095945050505050565b6000602082019050818103600083015261246d8184612058565b905092915050565b600060208201905061248a60008301846120cd565b92915050565b600060208201905081810360008301526124aa818461214e565b905092915050565b600060208201905081810360008301526124cb816121b8565b9050919050565b600060208201905081810360008301526124eb816121db565b9050919050565b6000602082019050818103600083015261250b816121fe565b9050919050565b6000602082019050818103600083015261252b81612221565b9050919050565b6000602082019050818103600083015261254b81612244565b9050919050565b6000602082019050818103600083015261256b81612267565b9050919050565b6000602082019050818103600083015261258b8161228a565b9050919050565b600060208201905081810360008301526125ab816122ad565b9050919050565b600060208201905081810360008301526125cb816122d0565b9050919050565b600060208201905081810360008301526125eb816122f3565b9050919050565b6000602082019050818103600083015261260b81612316565b9050919050565b6000602082019050818103600083015261262b81612339565b9050919050565b6000602082019050818103600083015261264b8161235c565b9050919050565b6000602082019050818103600083015261266b8161237f565b9050919050565b600060208201905061268760008301846123a2565b92915050565b60006126976126a8565b90506126a38282612944565b919050565b6000604051905090565b600067ffffffffffffffff8211156126cd576126cc612a7c565b5b6126d682612aab565b9050602081019050919050565b600067ffffffffffffffff8211156126fe576126fd612a7c565b5b61270782612aab565b9050602081019050919050565b6000819050602082019050919050565b600081519050919050565b600081519050919050565b600081519050919050565b6000602082019050919050565b600082825260208201905092915050565b600082825260208201905092915050565b600082825260208201905092915050565b600082825260208201905092915050565b600081905092915050565b60006127ac826128c6565b91506127b7836128c6565b9250827fffffffffffffffffffffffffffffffffffffffffffffffffffffffffffffffff038211156127ec576127eb6129ef565b5b828201905092915050565b6000612802826128c6565b915061280d836128c6565b92508261281d5761281c612a1e565b5b828204905092915050565b6000612833826128c6565b915061283e836128c6565b925082821015612851576128506129ef565b5b828203905092915050565b6000612867826128a6565b9050919050565b60008115159050919050565b60007fffffffff0000000000000000000000000000000000000000000000000000000082169050919050565b600073ffffffffffffffffffffffffffffffffffffffff82169050919050565b6000819050919050565b82818337600083830152505050565b60005b838110156128fd5780820151818401526020810190506128e2565b8381111561290c576000848401525b50505050565b6000600282049050600182168061292a57607f821691505b6020821081141561293e5761293d612a4d565b5b50919050565b61294d82612aab565b810181811067ffffffffffffffff8211171561296c5761296b612a7c565b5b80604052505050565b6000612980826128c6565b91507fffffffffffffffffffffffffffffffffffffffffffffffffffffffffffffffff8214156129b3576129b26129ef565b5b600182019050919050565b60006129c9826128c6565b91506129d4836128c6565b9250826129e4576129e3612a1e565b5b828206905092915050565b7f4e487b7100000000000000000000000000000000000000000000000000000000600052601160045260246000fd5b7f4e487b7100000000000000000000000000000000000000000000000000000000600052601260045260246000fd5b7f4e487b7100000000000000000000000000000000000000000000000000000000600052602260045260246000fd5b7f4e487b7100000000000000000000000000000000000000000000000000000000600052604160045260246000fd5b6000601f19601f8301169050919050565b7f4552433732313a207472616e7366657220746f206e6f6e20455243373231526560008201527f63656976657220696d706c656d656e7465720000000000000000000000000000602082015250565b7f4552433732313a20746f6b656e20616c7265616479206d696e74656400000000600082015250565b7f4552433732313a207472616e7366657220746f20746865207a65726f2061646460008201527f7265737300000000000000000000000000000000000000000000000000000000602082015250565b7f4552433732313a20617070726f766520746f2063616c6c657200000000000000600082015250565b7f4552433732313a206f70657261746f7220717565727920666f72206e6f6e657860008201527f697374656e7420746f6b656e0000000000000000000000000000000000000000602082015250565b7f4552433732313a20617070726f76652063616c6c6572206973206e6f74206f7760008201527f6e6572206e6f7220617070726f76656420666f7220616c6c0000000000000000602082015250565b7f4552433732313a2062616c616e636520717565727920666f7220746865207a6560008201527f726f206164647265737300000000000000000000000000000000000000000000602082015250565b7f4552433732313a206f776e657220717565727920666f72206e6f6e657869737460008201527f656e7420746f6b656e0000000000000000000000000000000000000000000000602082015250565b7f4552433732313a206d696e7420746f20746865207a65726f2061646472657373600082015250565b7f4552433732313a20617070726f76656420717565727920666f72206e6f6e657860008201527f697374656e7420746f6b656e0000000000000000000000000000000000000000602082015250565b7f4552433732313a207472616e73666572206f6620746f6b656e2074686174206960008201527f73206e6f74206f776e0000000000000000000000000000000000000000000000602082015250565b7f4552433732314d657461646174613a2055524920717565727920666f72206e6f60008201527f6e6578697374656e7420746f6b656e0000000000000000000000000000000000602082015250565b7f4552433732313a20617070726f76616c20746f2063757272656e74206f776e6560008201527f7200000000000000000000000000000000000000000000000000000000000000602082015250565b7f4552433732313a207472616e736665722063616c6c6572206973206e6f74206f60008201527f776e6572206e6f7220617070726f766564000000000000000000000000000000602082015250565b612ea58161285c565b8114612eb057600080fd5b50565b612ebc8161286e565b8114612ec757600080fd5b50565b612ed38161287a565b8114612ede57600080fd5b50565b612eea816128c6565b8114612ef557600080fd5b5056fea264697066735822122055aff5799894aeb2f37248d6b3bf47884d422ba544a21feeb82f408290f229e364736f6c63430008040033",
  "immutableReferences": {},
  "source": "// SPDX-License-Identifier: MIT\n\npragma solidity ^0.8.0;\nimport \"@openzeppelin/contracts/token/ERC721/ERC721.sol\";\n\ncontract Color is ERC721{\n    address public admin;\n\n    /* struct Color{\n        uint color_hex;\n        uint64 birthTime;\n        uint16 generation;\n    } */\n\n    string[] colors;\n\n    // maps owner with color index\n    mapping(uint => address) colorIndexToOwners;\n\n    // index will start from 1\n    mapping(string => uint) _colorIndex;\n    constructor() ERC721(\"ColorBlender\", \"CB\"){\n\n    }\n\n    function totalSupply() public view returns (uint) {\n        return colors.length;\n    }\n\n    modifier onlyAdmin() {\n        require(msg.sender == admin);\n        _;\n    }\n\n    function setAdmin(address _newAdmin) external onlyAdmin {\n        require(_newAdmin != address(0));\n\n        admin = _newAdmin;\n    }\n\n    function mint(string memory _color) public returns(string memory){\n        require(_colorIndex[_color] != 0);\n        colors.push(_color);\n        uint _id = totalSupply() - 1;\n        _mint(msg.sender, _id);\n        colorIndexToOwners[_id] = msg.sender;\n        _colorIndex[_color] = _id;\n        return _color;\n    }\n\n    function getAllColors(address _owner) public view returns(string[] memory){\n        uint totalCount = totalSupply();\n        uint j = 0;\n        string[] memory _colors = new string[](totalCount);\n        for(uint i=1; i < totalCount; i++){\n            if(colorIndexToOwners[i] == _owner){\n                _colors[j] = colors[i];\n                j++;\n            }\n        }\n        return colors;\n    }\n\n}\n",
  "sourcePath": "/Users/nishit/Documents/nft/src/contracts/Color.sol",
  "compiler": {
    "name": "solc",
    "version": "0.8.4+commit.c7e474f2.Emscripten.clang"
  },
  "schemaVersion": "3.4.1",
  "updatedAt": "2021-11-14T06:14:05.873Z",
  "devdoc": {
    "kind": "dev",
    "methods": {
      "approve(address,uint256)": {
        "details": "See {IERC721-approve}."
      },
      "balanceOf(address)": {
        "details": "See {IERC721-balanceOf}."
      },
      "getApproved(uint256)": {
        "details": "See {IERC721-getApproved}."
      },
      "isApprovedForAll(address,address)": {
        "details": "See {IERC721-isApprovedForAll}."
      },
      "name()": {
        "details": "See {IERC721Metadata-name}."
      },
      "ownerOf(uint256)": {
        "details": "See {IERC721-ownerOf}."
      },
      "safeTransferFrom(address,address,uint256)": {
        "details": "See {IERC721-safeTransferFrom}."
      },
      "safeTransferFrom(address,address,uint256,bytes)": {
        "details": "See {IERC721-safeTransferFrom}."
      },
      "setApprovalForAll(address,bool)": {
        "details": "See {IERC721-setApprovalForAll}."
      },
      "supportsInterface(bytes4)": {
        "details": "See {IERC165-supportsInterface}."
      },
      "symbol()": {
        "details": "See {IERC721Metadata-symbol}."
      },
      "tokenURI(uint256)": {
        "details": "See {IERC721Metadata-tokenURI}."
      },
      "transferFrom(address,address,uint256)": {
        "details": "See {IERC721-transferFrom}."
      }
    },
    "version": 1
  },
  "userdoc": {
    "kind": "user",
    "methods": {},
    "version": 1
  }
}