{
  "contractName": "Color",
  "abi": [
    {
      "inputs": [],
      "stateMutability": "nonpayable",
      "type": "constructor"
    },
    {
      "anonymous": false,
      "inputs": [
        {
          "indexed": true,
          "internalType": "address",
          "name": "owner",
          "type": "address"
        },
        {
          "indexed": true,
          "internalType": "address",
          "name": "approved",
          "type": "address"
        },
        {
          "indexed": true,
          "internalType": "uint256",
          "name": "tokenId",
          "type": "uint256"
        }
      ],
      "name": "Approval",
      "type": "event"
    },
    {
      "anonymous": false,
      "inputs": [
        {
          "indexed": true,
          "internalType": "address",
          "name": "owner",
          "type": "address"
        },
        {
          "indexed": true,
          "internalType": "address",
          "name": "operator",
          "type": "address"
        },
        {
          "indexed": false,
          "internalType": "bool",
          "name": "approved",
          "type": "bool"
        }
      ],
      "name": "ApprovalForAll",
      "type": "event"
    },
    {
      "anonymous": false,
      "inputs": [
        {
          "indexed": true,
          "internalType": "address",
          "name": "from",
          "type": "address"
        },
        {
          "indexed": true,
          "internalType": "address",
          "name": "to",
          "type": "address"
        },
        {
          "indexed": true,
          "internalType": "uint256",
          "name": "tokenId",
          "type": "uint256"
        }
      ],
      "name": "Transfer",
      "type": "event"
    },
    {
      "inputs": [
        {
          "internalType": "address",
          "name": "to",
          "type": "address"
        },
        {
          "internalType": "uint256",
          "name": "tokenId",
          "type": "uint256"
        }
      ],
      "name": "approve",
      "outputs": [],
      "stateMutability": "nonpayable",
      "type": "function"
    },
    {
      "inputs": [
        {
          "internalType": "address",
          "name": "owner",
          "type": "address"
        }
      ],
      "name": "balanceOf",
      "outputs": [
        {
          "internalType": "uint256",
          "name": "",
          "type": "uint256"
        }
      ],
      "stateMutability": "view",
      "type": "function",
      "constant": true
    },
    {
      "inputs": [
        {
          "internalType": "uint256",
          "name": "",
          "type": "uint256"
        }
      ],
      "name": "colors",
      "outputs": [
        {
          "internalType": "string",
          "name": "",
          "type": "string"
        }
      ],
      "stateMutability": "view",
      "type": "function",
      "constant": true
    },
    {
      "inputs": [
        {
          "internalType": "uint256",
          "name": "tokenId",
          "type": "uint256"
        }
      ],
      "name": "getApproved",
      "outputs": [
        {
          "internalType": "address",
          "name": "",
          "type": "address"
        }
      ],
      "stateMutability": "view",
      "type": "function",
      "constant": true
    },
    {
      "inputs": [
        {
          "internalType": "address",
          "name": "owner",
          "type": "address"
        },
        {
          "internalType": "address",
          "name": "operator",
          "type": "address"
        }
      ],
      "name": "isApprovedForAll",
      "outputs": [
        {
          "internalType": "bool",
          "name": "",
          "type": "bool"
        }
      ],
      "stateMutability": "view",
      "type": "function",
      "constant": true
    },
    {
      "inputs": [],
      "name": "name",
      "outputs": [
        {
          "internalType": "string",
          "name": "",
          "type": "string"
        }
      ],
      "stateMutability": "view",
      "type": "function",
      "constant": true
    },
    {
      "inputs": [
        {
          "internalType": "uint256",
          "name": "tokenId",
          "type": "uint256"
        }
      ],
      "name": "ownerOf",
      "outputs": [
        {
          "internalType": "address",
          "name": "",
          "type": "address"
        }
      ],
      "stateMutability": "view",
      "type": "function",
      "constant": true
    },
    {
      "inputs": [
        {
          "internalType": "address",
          "name": "from",
          "type": "address"
        },
        {
          "internalType": "address",
          "name": "to",
          "type": "address"
        },
        {
          "internalType": "uint256",
          "name": "tokenId",
          "type": "uint256"
        }
      ],
      "name": "safeTransferFrom",
      "outputs": [],
      "stateMutability": "nonpayable",
      "type": "function"
    },
    {
      "inputs": [
        {
          "internalType": "address",
          "name": "from",
          "type": "address"
        },
        {
          "internalType": "address",
          "name": "to",
          "type": "address"
        },
        {
          "internalType": "uint256",
          "name": "tokenId",
          "type": "uint256"
        },
        {
          "internalType": "bytes",
          "name": "_data",
          "type": "bytes"
        }
      ],
      "name": "safeTransferFrom",
      "outputs": [],
      "stateMutability": "nonpayable",
      "type": "function"
    },
    {
      "inputs": [
        {
          "internalType": "address",
          "name": "operator",
          "type": "address"
        },
        {
          "internalType": "bool",
          "name": "approved",
          "type": "bool"
        }
      ],
      "name": "setApprovalForAll",
      "outputs": [],
      "stateMutability": "nonpayable",
      "type": "function"
    },
    {
      "inputs": [
        {
          "internalType": "bytes4",
          "name": "interfaceId",
          "type": "bytes4"
        }
      ],
      "name": "supportsInterface",
      "outputs": [
        {
          "internalType": "bool",
          "name": "",
          "type": "bool"
        }
      ],
      "stateMutability": "view",
      "type": "function",
      "constant": true
    },
    {
      "inputs": [],
      "name": "symbol",
      "outputs": [
        {
          "internalType": "string",
          "name": "",
          "type": "string"
        }
      ],
      "stateMutability": "view",
      "type": "function",
      "constant": true
    },
    {
      "inputs": [
        {
          "internalType": "uint256",
          "name": "tokenId",
          "type": "uint256"
        }
      ],
      "name": "tokenURI",
      "outputs": [
        {
          "internalType": "string",
          "name": "",
          "type": "string"
        }
      ],
      "stateMutability": "view",
      "type": "function",
      "constant": true
    },
    {
      "inputs": [
        {
          "internalType": "address",
          "name": "from",
          "type": "address"
        },
        {
          "internalType": "address",
          "name": "to",
          "type": "address"
        },
        {
          "internalType": "uint256",
          "name": "tokenId",
          "type": "uint256"
        }
      ],
      "name": "transferFrom",
      "outputs": [],
      "stateMutability": "nonpayable",
      "type": "function"
    },
    {
      "inputs": [
        {
          "internalType": "string",
          "name": "_color",
          "type": "string"
        }
      ],
      "name": "mint",
      "outputs": [
        {
          "internalType": "string",
          "name": "",
          "type": "string"
        }
      ],
      "stateMutability": "nonpayable",
      "type": "function"
    },
    {
      "inputs": [],
      "name": "totalSupply",
      "outputs": [
        {
          "internalType": "uint256",
          "name": "",
          "type": "uint256"
        }
      ],
      "stateMutability": "view",
      "type": "function",
      "constant": true
    }
  ],
  "bytecode": "0x60806040523480156200001157600080fd5b506040518060400160405280600581526020017f436f6c6f720000000000000000000000000000000000000000000000000000008152506040518060400160405280600381526020017f434f4c0000000000000000000000000000000000000000000000000000000000815250816000908051906020019062000096929190620000b8565b508060019080519060200190620000af929190620000b8565b505050620001cd565b828054620000c69062000168565b90600052602060002090601f016020900481019282620000ea576000855562000136565b82601f106200010557805160ff191683800117855562000136565b8280016001018555821562000136579182015b828111156200013557825182559160200191906001019062000118565b5b50905062000145919062000149565b5090565b5b80821115620001645760008160009055506001016200014a565b5090565b600060028204905060018216806200018157607f821691505b602082108114156200019857620001976200019e565b5b50919050565b7f4e487b7100000000000000000000000000000000000000000000000000000000600052602260045260246000fd5b612a1b80620001dd6000396000f3fe608060405234801561001057600080fd5b50600436106101005760003560e01c806370a0823111610097578063bd11f69d11610066578063bd11f69d146102ab578063c87b56dd146102db578063d85d3d271461030b578063e985e9c51461033b57610100565b806370a082311461022557806395d89b4114610255578063a22cb46514610273578063b88d4fde1461028f57610100565b806318160ddd116100d357806318160ddd1461019f57806323b872dd146101bd57806342842e0e146101d95780636352211e146101f557610100565b806301ffc9a71461010557806306fdde0314610135578063081812fc14610153578063095ea7b314610183575b600080fd5b61011f600480360381019061011a9190611b94565b61036b565b60405161012c9190611fac565b60405180910390f35b61013d61044d565b60405161014a9190611fc7565b60405180910390f35b61016d60048036038101906101689190611c27565b6104df565b60405161017a9190611f45565b60405180910390f35b61019d60048036038101906101989190611b58565b610564565b005b6101a761067c565b6040516101b491906121a9565b60405180910390f35b6101d760048036038101906101d29190611a52565b610689565b005b6101f360048036038101906101ee9190611a52565b6106e9565b005b61020f600480360381019061020a9190611c27565b610709565b60405161021c9190611f45565b60405180910390f35b61023f600480360381019061023a91906119ed565b6107bb565b60405161024c91906121a9565b60405180910390f35b61025d610873565b60405161026a9190611fc7565b60405180910390f35b61028d60048036038101906102889190611b1c565b610905565b005b6102a960048036038101906102a49190611aa1565b610a86565b005b6102c560048036038101906102c09190611c27565b610ae8565b6040516102d29190611fc7565b60405180910390f35b6102f560048036038101906102f09190611c27565b610b94565b6040516103029190611fc7565b60405180910390f35b61032560048036038101906103209190611be6565b610c3b565b6040516103329190611fc7565b60405180910390f35b61035560048036038101906103509190611a16565b610d0f565b6040516103629190611fac565b60405180910390f35b60007f80ac58cd000000000000000000000000000000000000000000000000000000007bffffffffffffffffffffffffffffffffffffffffffffffffffffffff1916827bffffffffffffffffffffffffffffffffffffffffffffffffffffffff1916148061043657507f5b5e139f000000000000000000000000000000000000000000000000000000007bffffffffffffffffffffffffffffffffffffffffffffffffffffffff1916827bffffffffffffffffffffffffffffffffffffffffffffffffffffffff1916145b80610446575061044582610da3565b5b9050919050565b60606000805461045c906123ff565b80601f0160208091040260200160405190810160405280929190818152602001828054610488906123ff565b80156104d55780601f106104aa576101008083540402835291602001916104d5565b820191906000526020600020905b8154815290600101906020018083116104b857829003601f168201915b5050505050905090565b60006104ea82610e0d565b610529576040517f08c379a000000000000000000000000000000000000000000000000000000000815260040161052090612109565b60405180910390fd5b6004600083815260200190815260200160002060009054906101000a900473ffffffffffffffffffffffffffffffffffffffff169050919050565b600061056f82610709565b90508073ffffffffffffffffffffffffffffffffffffffff168373ffffffffffffffffffffffffffffffffffffffff1614156105e0576040517f08c379a00000000000000000000000000000000000000000000000000000000081526004016105d790612169565b60405180910390fd5b8073ffffffffffffffffffffffffffffffffffffffff166105ff610e79565b73ffffffffffffffffffffffffffffffffffffffff16148061062e575061062d81610628610e79565b610d0f565b5b61066d576040517f08c379a000000000000000000000000000000000000000000000000000000000815260040161066490612089565b60405180910390fd5b6106778383610e81565b505050565b6000600680549050905090565b61069a610694610e79565b82610f3a565b6106d9576040517f08c379a00000000000000000000000000000000000000000000000000000000081526004016106d090612189565b60405180910390fd5b6106e4838383611018565b505050565b61070483838360405180602001604052806000815250610a86565b505050565b6000806002600084815260200190815260200160002060009054906101000a900473ffffffffffffffffffffffffffffffffffffffff169050600073ffffffffffffffffffffffffffffffffffffffff168173ffffffffffffffffffffffffffffffffffffffff1614156107b2576040517f08c379a00000000000000000000000000000000000000000000000000000000081526004016107a9906120c9565b60405180910390fd5b80915050919050565b60008073ffffffffffffffffffffffffffffffffffffffff168273ffffffffffffffffffffffffffffffffffffffff16141561082c576040517f08c379a0000000000000000000000000000000000000000000000000000000008152600401610823906120a9565b60405180910390fd5b600360008373ffffffffffffffffffffffffffffffffffffffff1673ffffffffffffffffffffffffffffffffffffffff168152602001908152602001600020549050919050565b606060018054610882906123ff565b80601f01602080910402602001604051908101604052809291908181526020018280546108ae906123ff565b80156108fb5780601f106108d0576101008083540402835291602001916108fb565b820191906000526020600020905b8154815290600101906020018083116108de57829003601f168201915b5050505050905090565b61090d610e79565b73ffffffffffffffffffffffffffffffffffffffff168273ffffffffffffffffffffffffffffffffffffffff16141561097b576040517f08c379a000000000000000000000000000000000000000000000000000000000815260040161097290612049565b60405180910390fd5b8060056000610988610e79565b73ffffffffffffffffffffffffffffffffffffffff1673ffffffffffffffffffffffffffffffffffffffff16815260200190815260200160002060008473ffffffffffffffffffffffffffffffffffffffff1673ffffffffffffffffffffffffffffffffffffffff16815260200190815260200160002060006101000a81548160ff0219169083151502179055508173ffffffffffffffffffffffffffffffffffffffff16610a35610e79565b73ffffffffffffffffffffffffffffffffffffffff167f17307eab39ab6107e8899845ad3d59bd9653f200f220920489ca2b5937696c3183604051610a7a9190611fac565b60405180910390a35050565b610a97610a91610e79565b83610f3a565b610ad6576040517f08c379a0000000000000000000000000000000000000000000000000000000008152600401610acd90612189565b60405180910390fd5b610ae284848484611274565b50505050565b60068181548110610af857600080fd5b906000526020600020016000915090508054610b13906123ff565b80601f0160208091040260200160405190810160405280929190818152602001828054610b3f906123ff565b8015610b8c5780601f10610b6157610100808354040283529160200191610b8c565b820191906000526020600020905b815481529060010190602001808311610b6f57829003601f168201915b505050505081565b6060610b9f82610e0d565b610bde576040517f08c379a0000000000000000000000000000000000000000000000000000000008152600401610bd590612149565b60405180910390fd5b6000610be86112d0565b90506000815111610c085760405180602001604052806000815250610c33565b80610c12846112e7565b604051602001610c23929190611f21565b6040516020818303038152906040525b915050919050565b6060600782604051610c4d9190611f0a565b908152602001604051809103902060009054906101000a900460ff1615610c7357600080fd5b600682908060018154018082558091505060019003906000526020600020016000909190919091509080519060200190610cae929190611811565b5060006001600680549050610cc39190612315565b9050610ccf3382611494565b6001600784604051610ce19190611f0a565b908152602001604051809103902060006101000a81548160ff02191690831515021790555082915050919050565b6000600560008473ffffffffffffffffffffffffffffffffffffffff1673ffffffffffffffffffffffffffffffffffffffff16815260200190815260200160002060008373ffffffffffffffffffffffffffffffffffffffff1673ffffffffffffffffffffffffffffffffffffffff16815260200190815260200160002060009054906101000a900460ff16905092915050565b60007f01ffc9a7000000000000000000000000000000000000000000000000000000007bffffffffffffffffffffffffffffffffffffffffffffffffffffffff1916827bffffffffffffffffffffffffffffffffffffffffffffffffffffffff1916149050919050565b60008073ffffffffffffffffffffffffffffffffffffffff166002600084815260200190815260200160002060009054906101000a900473ffffffffffffffffffffffffffffffffffffffff1673ffffffffffffffffffffffffffffffffffffffff1614159050919050565b600033905090565b816004600083815260200190815260200160002060006101000a81548173ffffffffffffffffffffffffffffffffffffffff021916908373ffffffffffffffffffffffffffffffffffffffff160217905550808273ffffffffffffffffffffffffffffffffffffffff16610ef483610709565b73ffffffffffffffffffffffffffffffffffffffff167f8c5be1e5ebec7d5bd14f71427d1e84f3dd0314c0f7b2291e5b200ac8c7c3b92560405160405180910390a45050565b6000610f4582610e0d565b610f84576040517f08c379a0000000000000000000000000000000000000000000000000000000008152600401610f7b90612069565b60405180910390fd5b6000610f8f83610709565b90508073ffffffffffffffffffffffffffffffffffffffff168473ffffffffffffffffffffffffffffffffffffffff161480610ffe57508373ffffffffffffffffffffffffffffffffffffffff16610fe6846104df565b73ffffffffffffffffffffffffffffffffffffffff16145b8061100f575061100e8185610d0f565b5b91505092915050565b8273ffffffffffffffffffffffffffffffffffffffff1661103882610709565b73ffffffffffffffffffffffffffffffffffffffff161461108e576040517f08c379a000000000000000000000000000000000000000000000000000000000815260040161108590612129565b60405180910390fd5b600073ffffffffffffffffffffffffffffffffffffffff168273ffffffffffffffffffffffffffffffffffffffff1614156110fe576040517f08c379a00000000000000000000000000000000000000000000000000000000081526004016110f590612029565b60405180910390fd5b611109838383611662565b611114600082610e81565b6001600360008573ffffffffffffffffffffffffffffffffffffffff1673ffffffffffffffffffffffffffffffffffffffff16815260200190815260200160002060008282546111649190612315565b925050819055506001600360008473ffffffffffffffffffffffffffffffffffffffff1673ffffffffffffffffffffffffffffffffffffffff16815260200190815260200160002060008282546111bb919061228e565b92505081905550816002600083815260200190815260200160002060006101000a81548173ffffffffffffffffffffffffffffffffffffffff021916908373ffffffffffffffffffffffffffffffffffffffff160217905550808273ffffffffffffffffffffffffffffffffffffffff168473ffffffffffffffffffffffffffffffffffffffff167fddf252ad1be2c89b69c2b068fc378daa952ba7f163c4a11628f55a4df523b3ef60405160405180910390a4505050565b61127f848484611018565b61128b84848484611667565b6112ca576040517f08c379a00000000000000000000000000000000000000000000000000000000081526004016112c190611fe9565b60405180910390fd5b50505050565b606060405180602001604052806000815250905090565b6060600082141561132f576040518060400160405280600181526020017f3000000000000000000000000000000000000000000000000000000000000000815250905061148f565b600082905060005b6000821461136157808061134a90612462565b915050600a8261135a91906122e4565b9150611337565b60008167ffffffffffffffff8111156113a3577f4e487b7100000000000000000000000000000000000000000000000000000000600052604160045260246000fd5b6040519080825280601f01601f1916602001820160405280156113d55781602001600182028036833780820191505090505b5090505b60008514611488576001826113ee9190612315565b9150600a856113fd91906124ab565b6030611409919061228e565b60f81b818381518110611445577f4e487b7100000000000000000000000000000000000000000000000000000000600052603260045260246000fd5b60200101907effffffffffffffffffffffffffffffffffffffffffffffffffffffffffffff1916908160001a905350600a8561148191906122e4565b94506113d9565b8093505050505b919050565b600073ffffffffffffffffffffffffffffffffffffffff168273ffffffffffffffffffffffffffffffffffffffff161415611504576040517f08c379a00000000000000000000000000000000000000000000000000000000081526004016114fb906120e9565b60405180910390fd5b61150d81610e0d565b1561154d576040517f08c379a000000000000000000000000000000000000000000000000000000000815260040161154490612009565b60405180910390fd5b61155960008383611662565b6001600360008473ffffffffffffffffffffffffffffffffffffffff1673ffffffffffffffffffffffffffffffffffffffff16815260200190815260200160002060008282546115a9919061228e565b92505081905550816002600083815260200190815260200160002060006101000a81548173ffffffffffffffffffffffffffffffffffffffff021916908373ffffffffffffffffffffffffffffffffffffffff160217905550808273ffffffffffffffffffffffffffffffffffffffff16600073ffffffffffffffffffffffffffffffffffffffff167fddf252ad1be2c89b69c2b068fc378daa952ba7f163c4a11628f55a4df523b3ef60405160405180910390a45050565b505050565b60006116888473ffffffffffffffffffffffffffffffffffffffff166117fe565b156117f1578373ffffffffffffffffffffffffffffffffffffffff1663150b7a026116b1610e79565b8786866040518563ffffffff1660e01b81526004016116d39493929190611f60565b602060405180830381600087803b1580156116ed57600080fd5b505af192505050801561171e57506040513d601f19601f8201168201806040525081019061171b9190611bbd565b60015b6117a1573d806000811461174e576040519150601f19603f3d011682016040523d82523d6000602084013e611753565b606091505b50600081511415611799576040517f08c379a000000000000000000000000000000000000000000000000000000000815260040161179090611fe9565b60405180910390fd5b805181602001fd5b63150b7a0260e01b7bffffffffffffffffffffffffffffffffffffffffffffffffffffffff1916817bffffffffffffffffffffffffffffffffffffffffffffffffffffffff1916149150506117f6565b600190505b949350505050565b600080823b905060008111915050919050565b82805461181d906123ff565b90600052602060002090601f01602090048101928261183f5760008555611886565b82601f1061185857805160ff1916838001178555611886565b82800160010185558215611886579182015b8281111561188557825182559160200191906001019061186a565b5b5090506118939190611897565b5090565b5b808211156118b0576000816000905550600101611898565b5090565b60006118c76118c2846121e9565b6121c4565b9050828152602081018484840111156118df57600080fd5b6118ea8482856123bd565b509392505050565b60006119056119008461221a565b6121c4565b90508281526020810184848401111561191d57600080fd5b6119288482856123bd565b509392505050565b60008135905061193f81612989565b92915050565b600081359050611954816129a0565b92915050565b600081359050611969816129b7565b92915050565b60008151905061197e816129b7565b92915050565b600082601f83011261199557600080fd5b81356119a58482602086016118b4565b91505092915050565b600082601f8301126119bf57600080fd5b81356119cf8482602086016118f2565b91505092915050565b6000813590506119e7816129ce565b92915050565b6000602082840312156119ff57600080fd5b6000611a0d84828501611930565b91505092915050565b60008060408385031215611a2957600080fd5b6000611a3785828601611930565b9250506020611a4885828601611930565b9150509250929050565b600080600060608486031215611a6757600080fd5b6000611a7586828701611930565b9350506020611a8686828701611930565b9250506040611a97868287016119d8565b9150509250925092565b60008060008060808587031215611ab757600080fd5b6000611ac587828801611930565b9450506020611ad687828801611930565b9350506040611ae7878288016119d8565b925050606085013567ffffffffffffffff811115611b0457600080fd5b611b1087828801611984565b91505092959194509250565b60008060408385031215611b2f57600080fd5b6000611b3d85828601611930565b9250506020611b4e85828601611945565b9150509250929050565b60008060408385031215611b6b57600080fd5b6000611b7985828601611930565b9250506020611b8a858286016119d8565b9150509250929050565b600060208284031215611ba657600080fd5b6000611bb48482850161195a565b91505092915050565b600060208284031215611bcf57600080fd5b6000611bdd8482850161196f565b91505092915050565b600060208284031215611bf857600080fd5b600082013567ffffffffffffffff811115611c1257600080fd5b611c1e848285016119ae565b91505092915050565b600060208284031215611c3957600080fd5b6000611c47848285016119d8565b91505092915050565b611c5981612349565b82525050565b611c688161235b565b82525050565b6000611c798261224b565b611c838185612261565b9350611c938185602086016123cc565b611c9c81612598565b840191505092915050565b6000611cb282612256565b611cbc8185612272565b9350611ccc8185602086016123cc565b611cd581612598565b840191505092915050565b6000611ceb82612256565b611cf58185612283565b9350611d058185602086016123cc565b80840191505092915050565b6000611d1e603283612272565b9150611d29826125a9565b604082019050919050565b6000611d41601c83612272565b9150611d4c826125f8565b602082019050919050565b6000611d64602483612272565b9150611d6f82612621565b604082019050919050565b6000611d87601983612272565b9150611d9282612670565b602082019050919050565b6000611daa602c83612272565b9150611db582612699565b604082019050919050565b6000611dcd603883612272565b9150611dd8826126e8565b604082019050919050565b6000611df0602a83612272565b9150611dfb82612737565b604082019050919050565b6000611e13602983612272565b9150611e1e82612786565b604082019050919050565b6000611e36602083612272565b9150611e41826127d5565b602082019050919050565b6000611e59602c83612272565b9150611e64826127fe565b604082019050919050565b6000611e7c602983612272565b9150611e878261284d565b604082019050919050565b6000611e9f602f83612272565b9150611eaa8261289c565b604082019050919050565b6000611ec2602183612272565b9150611ecd826128eb565b604082019050919050565b6000611ee5603183612272565b9150611ef08261293a565b604082019050919050565b611f04816123b3565b82525050565b6000611f168284611ce0565b915081905092915050565b6000611f2d8285611ce0565b9150611f398284611ce0565b91508190509392505050565b6000602082019050611f5a6000830184611c50565b92915050565b6000608082019050611f756000830187611c50565b611f826020830186611c50565b611f8f6040830185611efb565b8181036060830152611fa18184611c6e565b905095945050505050565b6000602082019050611fc16000830184611c5f565b92915050565b60006020820190508181036000830152611fe18184611ca7565b905092915050565b6000602082019050818103600083015261200281611d11565b9050919050565b6000602082019050818103600083015261202281611d34565b9050919050565b6000602082019050818103600083015261204281611d57565b9050919050565b6000602082019050818103600083015261206281611d7a565b9050919050565b6000602082019050818103600083015261208281611d9d565b9050919050565b600060208201905081810360008301526120a281611dc0565b9050919050565b600060208201905081810360008301526120c281611de3565b9050919050565b600060208201905081810360008301526120e281611e06565b9050919050565b6000602082019050818103600083015261210281611e29565b9050919050565b6000602082019050818103600083015261212281611e4c565b9050919050565b6000602082019050818103600083015261214281611e6f565b9050919050565b6000602082019050818103600083015261216281611e92565b9050919050565b6000602082019050818103600083015261218281611eb5565b9050919050565b600060208201905081810360008301526121a281611ed8565b9050919050565b60006020820190506121be6000830184611efb565b92915050565b60006121ce6121df565b90506121da8282612431565b919050565b6000604051905090565b600067ffffffffffffffff82111561220457612203612569565b5b61220d82612598565b9050602081019050919050565b600067ffffffffffffffff82111561223557612234612569565b5b61223e82612598565b9050602081019050919050565b600081519050919050565b600081519050919050565b600082825260208201905092915050565b600082825260208201905092915050565b600081905092915050565b6000612299826123b3565b91506122a4836123b3565b9250827fffffffffffffffffffffffffffffffffffffffffffffffffffffffffffffffff038211156122d9576122d86124dc565b5b828201905092915050565b60006122ef826123b3565b91506122fa836123b3565b92508261230a5761230961250b565b5b828204905092915050565b6000612320826123b3565b915061232b836123b3565b92508282101561233e5761233d6124dc565b5b828203905092915050565b600061235482612393565b9050919050565b60008115159050919050565b60007fffffffff0000000000000000000000000000000000000000000000000000000082169050919050565b600073ffffffffffffffffffffffffffffffffffffffff82169050919050565b6000819050919050565b82818337600083830152505050565b60005b838110156123ea5780820151818401526020810190506123cf565b838111156123f9576000848401525b50505050565b6000600282049050600182168061241757607f821691505b6020821081141561242b5761242a61253a565b5b50919050565b61243a82612598565b810181811067ffffffffffffffff8211171561245957612458612569565b5b80604052505050565b600061246d826123b3565b91507fffffffffffffffffffffffffffffffffffffffffffffffffffffffffffffffff8214156124a05761249f6124dc565b5b600182019050919050565b60006124b6826123b3565b91506124c1836123b3565b9250826124d1576124d061250b565b5b828206905092915050565b7f4e487b7100000000000000000000000000000000000000000000000000000000600052601160045260246000fd5b7f4e487b7100000000000000000000000000000000000000000000000000000000600052601260045260246000fd5b7f4e487b7100000000000000000000000000000000000000000000000000000000600052602260045260246000fd5b7f4e487b7100000000000000000000000000000000000000000000000000000000600052604160045260246000fd5b6000601f19601f8301169050919050565b7f4552433732313a207472616e7366657220746f206e6f6e20455243373231526560008201527f63656976657220696d706c656d656e7465720000000000000000000000000000602082015250565b7f4552433732313a20746f6b656e20616c7265616479206d696e74656400000000600082015250565b7f4552433732313a207472616e7366657220746f20746865207a65726f2061646460008201527f7265737300000000000000000000000000000000000000000000000000000000602082015250565b7f4552433732313a20617070726f766520746f2063616c6c657200000000000000600082015250565b7f4552433732313a206f70657261746f7220717565727920666f72206e6f6e657860008201527f697374656e7420746f6b656e0000000000000000000000000000000000000000602082015250565b7f4552433732313a20617070726f76652063616c6c6572206973206e6f74206f7760008201527f6e6572206e6f7220617070726f76656420666f7220616c6c0000000000000000602082015250565b7f4552433732313a2062616c616e636520717565727920666f7220746865207a6560008201527f726f206164647265737300000000000000000000000000000000000000000000602082015250565b7f4552433732313a206f776e657220717565727920666f72206e6f6e657869737460008201527f656e7420746f6b656e0000000000000000000000000000000000000000000000602082015250565b7f4552433732313a206d696e7420746f20746865207a65726f2061646472657373600082015250565b7f4552433732313a20617070726f76656420717565727920666f72206e6f6e657860008201527f697374656e7420746f6b656e0000000000000000000000000000000000000000602082015250565b7f4552433732313a207472616e73666572206f6620746f6b656e2074686174206960008201527f73206e6f74206f776e0000000000000000000000000000000000000000000000602082015250565b7f4552433732314d657461646174613a2055524920717565727920666f72206e6f60008201527f6e6578697374656e7420746f6b656e0000000000000000000000000000000000602082015250565b7f4552433732313a20617070726f76616c20746f2063757272656e74206f776e6560008201527f7200000000000000000000000000000000000000000000000000000000000000602082015250565b7f4552433732313a207472616e736665722063616c6c6572206973206e6f74206f60008201527f776e6572206e6f7220617070726f766564000000000000000000000000000000602082015250565b61299281612349565b811461299d57600080fd5b50565b6129a98161235b565b81146129b457600080fd5b50565b6129c081612367565b81146129cb57600080fd5b50565b6129d7816123b3565b81146129e257600080fd5b5056fea2646970667358221220f5c93ef804c939ffa5b808e655938a3061834668ba855c8ce05da95b016459c464736f6c63430008040033",
  "immutableReferences": {},
  "source": "// SPDX-License-Identifier: MIT\n\npragma solidity ^0.8.0;\nimport \"@openzeppelin/contracts/token/ERC721/ERC721.sol\";\n\ncontract Color is ERC721{\n    string[] public colors;\n    mapping(string => bool) _colorExists;\n    constructor() ERC721(\"Color\", \"COL\"){\n    }\n\n    function mint(string memory _color) public returns(string memory){\n\n        require(!_colorExists[_color]);\n        colors.push(_color);\n        uint _id = colors.length - 1;\n        _mint(msg.sender, _id);\n\n        _colorExists[_color] = true;\n        return _color;\n    }\n\n    function totalSupply() external  view returns (uint256) {\n      return colors.length;\n    }\n\n}\n",
  "sourcePath": "/Users/nishit/Documents/nft/src/contracts/Color.sol",
  "compiler": {
    "name": "solc",
    "version": "0.8.4+commit.c7e474f2.Emscripten.clang"
  },
  "schemaVersion": "3.4.1",
  "updatedAt": "2021-11-13T14:37:37.777Z",
  "networkType": "ethereum",
  "devdoc": {
    "kind": "dev",
    "methods": {
      "approve(address,uint256)": {
        "details": "See {IERC721-approve}."
      },
      "balanceOf(address)": {
        "details": "See {IERC721-balanceOf}."
      },
      "getApproved(uint256)": {
        "details": "See {IERC721-getApproved}."
      },
      "isApprovedForAll(address,address)": {
        "details": "See {IERC721-isApprovedForAll}."
      },
      "name()": {
        "details": "See {IERC721Metadata-name}."
      },
      "ownerOf(uint256)": {
        "details": "See {IERC721-ownerOf}."
      },
      "safeTransferFrom(address,address,uint256)": {
        "details": "See {IERC721-safeTransferFrom}."
      },
      "safeTransferFrom(address,address,uint256,bytes)": {
        "details": "See {IERC721-safeTransferFrom}."
      },
      "setApprovalForAll(address,bool)": {
        "details": "See {IERC721-setApprovalForAll}."
      },
      "supportsInterface(bytes4)": {
        "details": "See {IERC165-supportsInterface}."
      },
      "symbol()": {
        "details": "See {IERC721Metadata-symbol}."
      },
      "tokenURI(uint256)": {
        "details": "See {IERC721Metadata-tokenURI}."
      },
      "transferFrom(address,address,uint256)": {
        "details": "See {IERC721-transferFrom}."
      }
    },
    "version": 1
  },
  "userdoc": {
    "kind": "user",
    "methods": {},
    "version": 1
  }
}